:100000006F10A01013000000130000001300000088
:100010001300000013000000130000001300000094
:100020001300000013000000130000001300000084
:08003000130000007300100032
:100038000000000000000000480200004C02000020
:1000480000000000A21000000000000000000000F6
:10005800A4100000A610000000000000000000002E
:10006800A810000000000000AA1000000000000016
:10007800AC100000AE100000B0100000B21000007C
:10008800B4100000B6100000B8100000BA1000004C
:10009800BC100000BE100000C0100000C21000001C
:1000A800C4100000C6100000C8100000CA100000EC
:1000B800CC100000CE100000D0100000D2100000BC
:1000C800D4100000D6100000D8100000DA1000008C
:1000D800DC100000DE100000E0100000E21000005C
:1000E800E4100000E6100000E8100000EA1000002C
:1000F800EC100000EE100000F0100000F2100000FC
:10010800F4100000F6100000F8100000FA100000CB
:10011800FC100000FE100000001100000211000099
:100128000411000006110000081100000000000082
:080138000000000000000000BF
:10014000397101436EC619A0397141536AC866CA34
:1001500062CC5ECE19A0397101535AD056D252D416
:100160004ED64AD826DA22DC06DE3301614082828E
:1001700041114AC026C222C406C68282B24D410144
:10018000024D924C224CB24B4101024B924A224A00
:10019000B2494101024992442244B2404101828065
:1001A0003D432A876373C3029377F700BDEFADE544
:1001B000937606FF3D8ABA960CC34CC30CC74CC756
:1001C0004107E36BD7FE11E28280B306C3408A0683
:1001D0009702000096966780A6002307B700A30643
:1001E000B7002306B700A305B7002305B700A30493
:1001F000B7002304B700A303B7002303B700A3028B
:10020000B7002302B700A301B7002301B700A30082
:10021000B7002300B700828093F5F50F9396850011
:10022000D58D93960501D58D61B7939627009702DA
:10023000000096968682E78086FA9680C1171D8F09
:100240003E96E374C3F8A5B77300203001A085473C
:100250006309F5008947630AF500116513058550A8
:100260008280116513050573828011651305859FD2
:100270008280916793878750631AF50099479CA104
:10028000A1471CA2930700029CA2828091679387DA
:1002900007736315F500A1479CA1E5B791679387A4
:1002A000879FE314F5FEC1479CA1E147D9BFEFF258
:1002B0003FEC41118D472A89854511453EC402C254
:1002C00002C6EF10802685452145EF100026371421
:1002D0000140E177C1444C00130504807C8226C6AE
:1002E000EF00106B1306F9FF133616001305048098
:1002F000A165EF00507AA1474C00130504C07C8231
:1003000026C6EF00F068130504C0A145EF00707722
:1003100091474C00130504C064823EC6EF0050674D
:1003200065472388E1804101B5B5B7170140938740
:1003300007C09C47C18B81EBEFF29FE30545EF10AF
:10034000202C054581BD01458280EFF2FFDFF13FA2
:10035000014439C5814401490144371B0140214A08
:10036000DD4B1DA8054523284BC1EF10602905452D
:10037000232A4BC193090BC0EF10802863EB2B019C
:1003800003258BC00604050911810589498C137961
:10039000F90F850493F4F40F83C70181E3E4F4FCBF
:1003A00022041305F00F3345A402D9BB03C7018112
:1003B0006309A702EFF2DFDB13840181AA84B5375A
:1003C00009E513052003EF10002704A0BD3F130526
:1003D0002003EF104026953F8D3F853FBD37B53751
:1003E00055BB8280EFF2DFD841118D47854511451D
:1003F000371401403EC402C202C6EF100013854705
:1004000091444C00130504807C8226C6EF005058AE
:1004100089474C00130504807C8226C6EF005057A4
:1004200041018DBBEFF2DFD40565854513050580DD
:10043000EF10A00F8545054537340140EF10C0107F
:10044000130504C0C145EF10E01381453705004096
:10045000EF104013130504C09305703EEF106017B2
:10046000B707002083A507089307803E0546B3D54C
:10047000F502130504C0FD15C205C181EF1020105F
:10048000130504C093050002EF10C0118145370524
:100490000040EF1020109D4537050040EF1000127E
:1004A0008545130504C0EF10000CEDB1EFF2BFCA93
:1004B0006945ED3D9D3D1384818719C91306C0042C
:1004C0009305440013858187EF20B02BBD3D68C4A0
:1004D000B757000003AB07A4B757000083AA47A48F
:1004E000B757000003AA87A4B757000083A9C7A481
:1004F000130904059304000008401104EF20A065CF
:10050000DA85EF103041D685EF10107DD285EF10DF
:10051000B07CCE85EF10507CAA852685EF10F008C0
:10052000AA84E31B89FCB757000083A507A5EF1039
:10053000703EEF20205C4205418181B9EFF25FC33C
:100540005144AD377D1429451374F40FEF10A00EFC
:100550006DF889B1EFF23FC06545893DF9331384E9
:10056000818219C91306C004930544001385818252
:10057000EF203021D93B68C4B7570000B7540000C2
:1005800083AA07A403AA04A593090405130900007C
:1005900008401104EF20205CD685EF10B037D285DB
:1005A000EF109073AA854A85EF1030002A89E391F5
:1005B00089FE83A504A5EF10F035B757000083A589
:1005C00007A3EF107071EF20E0524205418175BE24
:1005D000EFF21FBA5144BD3F7D1429451374F40F47
:1005E000EF1060056DF87DB6EFF29FB8A537EF20EC
:1005F000E062B757000083A547A3EF10F06DEF202E
:10060000C06EB757000003A687A383A6C7A3EF1049
:10061000E005EF204078BDBEEFF29FB24111EF0040
:100620005010EF00B01E0945EF00F063EF00B07A04
:10063000553BCD3B0545A539EF00C067B7560000D7
:10064000938686A7054685450545EF00B004B75655
:100650000000938686A8054685450945EF0090036E
:10066000F13DA93585679387F7C763E7A702B756BA
:100670000000938606A9054689450145EF009001D3
:100680003535B75600002A87938686A905468145E9
:100690000D45EF00300001A01305803EEF00B0795A
:1006A000053F99372A84E92BB757000083AB07A68B
:1006B000B757000003AC47A6B757000083ACC7A5E7
:1006C000B757000003AD47A5130B0000228ADA8953
:1006D00081440149B717014093870780984783C633
:1006E0001181058B938A11811DCF95EE854723805B
:1006F000FA007923B7560000938606AA0546894575
:100700000145EF00207983C70A00E9F70547630E2A
:10071000E90E630909028947630AF9208D476304DA
:10072000F930014945BF9C47858BF1FFE9DE05099A
:10073000130B000023800A001379F90F91235A84C8
:100740008144D1B7B717014093870780944703C608
:100750002181898A938A2181BDCE35EE2380EA00EA
:10076000052383C70A00C1EB4135D285EF20000085
:10077000EA852A84EF10904D634D0506B7570000B7
:1007800083AA87A52285D685EF10F0436353A00086
:1007900056842285EF2000362AC4EF20C03BAA856C
:1007A0002285EF10B07CB757000083A507A7EF1094
:1007B000B052EF2020349357F54122473D8DB75674
:1007C0000000B307F540938686AA05468945014592
:1007D000EF00406C01B79C47898BC1F759D21305D4
:1007E000401F23800A00EF001065DD33F53B2A8AA5
:1007F0008DBF6A8479BFB7560000938606AB054665
:1008000089450145EF000069F1B5B71701409387AD
:100810000780984783C62181098B938A2181630BC6
:10082000070ACDEA23802A01A12983C70A0063971A
:10083000071E914763E2970C850493F4F40F5A84E2
:100840006533D285EF109072DE85AA8AEF101040D2
:10085000634C050CE2855685EF10F0366353A0001B
:10086000E28A5685EF2000292A8B4E85EF208028CA
:100870002AC6EF20402EAA854E85EF10306FB75D57
:10088000000083A50DA7EF103045EF20A0262AC455
:100890005A85EF20402CAA855685EF10306D83A530
:1008A0000DA7EF107043EF20E0249357F541A248C5
:1008B00032483D8DB7560000B307F5405A879386FE
:1008C00086AB054689450145EF00C05C228B0933A4
:1008D000568409B59C47898BA9FBA1DA1305401FF3
:1008E00023800A00EF003055E531FD39130B00007D
:1008F0002A8A5A84814415BFDA852285EF10106751
:1009000093050000AA89EF10703463560500B707FD
:100910000080B3C93701E6854E85EF10D02A6353B6
:10092000A000E689814429BFDE8A25BFB7170140B0
:1009300093870780944703C62181898A938A2181FE
:10094000D5C64DE62380EA00252E83C70A006397AB
:10095000070CB757000083A547A72285EF10B026E4
:100960006359A00099E4854537050040EF00B03F8A
:1009700085449D39D285EF10705FB757000083AA78
:1009800087A62A84D685EF10702C634C0500B757D4
:10099000000083AAC7A62285D685EF10D022635314
:1009A000A0005684B707004083DA470293077025FA
:1009B0002547C20A93DA0A0163E657011307C00309
:1009C00033D7EA0222853AC4EF20C0129307C0034E
:1009D0002247B75600002A88938606AD054689450A
:1009E0000145B3F7FA027D21E536EDB19C47898BCD
:1009F000A9FF21DE1305401F23800A00EF00B0434A
:100A0000C13EDD362A8A814537050040EF00B0350A
:100A1000B707004023920702814405BFB756000084
:100A2000938686ACE9BB59349307803E3357F50271
:100A3000B7560000938606AE4207B377F5024183AE
:100A400069B3EFF24FF10111AA898545214502C230
:100A500002C402C602C802CA02CC02CEEF00F02CC9
:100A6000854537052000EF00302E371401409307ED
:100A7000000471498D444C00130504C07C824AC6B1
:100A800026C4EF00E070930700084C00130504C073
:100A90007C824AC626C4EF00A06FB707FFBF3ECADC
:100AA000B7070004375400409387E70F3ECC0C088B
:100AB000916713050440FC864EC8EF00607F130564
:100AC00004408545EF00F00D854513050440EF0017
:100AD000101205616FF06FEBEFF2EFE73754004053
:100AE0002A8993040440B70502002685EF0090147C
:100AF0007DF913050440854537040300B7540040D1
:100B0000EF00B00B050493890440A2854E85EF00E9
:100B1000101165DD138504400146930580073704F5
:100B20000700B7540040EF00700E130424089389A7
:100B30000440A2854E85EF00900E65DD13850440CC
:100B4000814537040700B7540040EF00F00B130451
:100B5000440893890440A2854E85EF00500C65DD62
:100B6000CA851385044037040700B7540040EF00DE
:100B7000B0091304440813890440A2854A85EF0094
:100B8000100A65DD854513850440EF00B0046FF061
:100B9000CFDFEFF24FDCB75400402A842E899389CF
:100BA0000440B70502004E85EF00D0087DF913859B
:100BB00004408545B7040300B7590040EF00E07FCB
:100BC0008504138A0940A6855285EF00500565DD2E
:100BD00013850940014693058007B7040700B759FC
:100BE0000040EF00B00293842408138A0940A685D0
:100BF0005285EF00D00265DD13850940930500049E
:100C0000B7090700B7540040EF0010009389490866
:100C100093840440CE852685EF00700065DDB754CF
:100C20000040B7090700229993840440938949083A
:100C3000631B240137550040854513050540EF002F
:100C400060796FF08FD40C202685EF00E07BCE8595
:100C50002685EF00C07C65DD0504D9BFEFF24FD1DA
:100C6000938505FB2A8413F5F50FBD351355440014
:100C70001365050195351375F400B93D6FF08FD1FB
:100C8000EFF20FCF01441149A2850145C13F130680
:100C9000000881451385818CEFF08FD00504930502
:100CA00000081385818C1374F40FE535E31E24FDD1
:100CB0006FF04FCEEFF2CFCB37250600130505A816
:100CC00049331305E00A093D1305500D313513056D
:100CD000000819351305800A01357D45F53B1305DC
:100CE000D00ADD3B13050004C53B1305300DED3381
:100CF00013050003D53313050002F93B0945E93B11
:100D00001305100AD13B1305000CF9331305100825
:100D1000E1331305B002C9331305900D753B13057C
:100D200020025D3B1305B00D453B130500026D33FA
:100D30001305400A55331305D008793B13052007E6
:100D4000613B3D3F1305F00A413B6FF0AFC4EFF24A
:100D5000AFBF4111AA8A32853A842E8BB689EFF053
:100D60000FCF9306F1001306E1009305D1002A8905
:100D7000EFF02FD0988793070008198C98866204AB
:100D80006184998F63D857010C87814A8D81DA95E8
:100D900013FBF50F014AA14B9384818C1C8793753B
:100DA000FA0F13D7370063F9E50490868146B387BD
:100DB000C702B3878702B3C7770333074603BA97DF
:100DC00019A83387F6004A9718233385D400638225
:100DD000090218A1850613F7F60FE364C7FEDA953A
:100DE00093F5F50F56859D3D8C862685050A55336E
:100DF00075B71347F7FFF1BF41016FF06FB8EFF21E
:100E0000AFB441112A843285AE84B289368A3A89D8
:100E1000EFF0EFC39306F1001306E1009305D10054
:100E2000EFF02FC5930A0002A3070100214BA94B45
:100E3000130C00089C87CA978387070081E741014C
:100E40006FF00FB41C87B387FA40B3C7670363D54D
:100E500097003D35814401449C87CA97038707006A
:100E6000631977011C8701448D83BE9493F4F40FBA
:100E700031A82285D2864E86A685D13D9C863E9499
:100E80001374F40FB307FC40E3CE87FC9C878507FF
:100E9000DC874DB739714ECEAA892E8506D622D46D
:100EA00026D24AD052CC42DC46DE3AD83EDAAE8474
:100EB000328A3689EFF0AFB99306B1001306A1006C
:100EC00093059100EFF0EFBA4145EF20400A10186A
:100ED000CA852A8432C6EF20C02C2A892285EF20B9
:100EE00060289C84C8851375F50F3305F502894782
:100EF0002287D2862686CE853345F5023305A0406B
:100F0000130505041375F50FDD3D2285EF20C0069E
:100F1000B25022544A8592540259F249624A2161E0
:100F20008280B71702409843B706FFF84111136754
:100F3000170098C3D84337060200758FD8C398436B
:100F4000B706F7FEFD16758F98C39843B706FCFFEA
:100F5000FD16758F98C3D843B70681FFFD16758FB0
:100F6000D8C337079F0098C702C402C69843C1661A
:100F7000558F98C3B716024005679C42F18F3EC655
:100F8000A24785073EC4B24781E7A247E397E7FE41
:100F9000B71702409C431397E7006357070685473E
:100FA0003EC632478547631FF704B7170240D84350
:100FB000B706C1FFFD16D8C3D843D8C3D8431367BB
:100FC0000740D8C3D843758FD8C3D843B70611009C
:100FD000558FD8C39843B7060001558F98C39843DF
:100FE00093166700E3DD06FED843B7160240719BF7
:100FF000D8C3D84313672700D8C32147DC42B18B3D
:10100000E39EE7FE4101828002C661BFB71602403F
:10101000DC42370700201146B18B130707086385B0
:10102000C70021466388C702B7177A009387072055
:101030001CC3B7170240DC43918393F6F700B70750
:10104000002093870700B69794231C43B3D7D7009B
:101050001CC38280DC42D4424166C983BD8BF18EC1
:10106000890745466393C700C94781EEB7460240EA
:1010700083A60680C18A89CEB7167A009386062099
:1010800021A8B7160240D4421396E600E35606FEA6
:10109000B7163D0093860690B387D70251BF01A0D3
:1010A00001A001A001A001A001A001A001A001A038
:1010B00001A001A001A001A001A001A001A001A028
:1010C00001A001A001A001A001A001A001A001A018
:1010D00001A001A001A001A001A001A001A001A008
:1010E00001A001A001A001A001A001A001A001A0F8
:1010F00001A001A001A001A001A001A001A001A0E8
:1011000001A001A001A001A001A097F1FF1F938100
:101110006177171100201301E16E174500001305D8
:10112000E5BC97F5FF1F9385E5ED1386018163FA12
:10113000C5008322050023A0550011059105E3EAAF
:10114000C5FE138501819385C1946377B500232083
:1011500005001105E36DB5FEFD42739002BC8D42A2
:10116000739042809302800873A0023097F2FFFFD1
:101170009382C2EC93E2320073905230EFF07FDA48
:1011800097F2FFFF938282497390123473002030EC
:101190009C4513F7070113F8F70001C7D8413368DE
:1011A000E80037270240145B3707000F758F4DEBBF
:1011B0008546A389D180371701406315E5009A2140
:1011C00035839AA18E2113F7F50F39C31841814653
:1011D000854E3D4F930F800293028004214E33963B
:1011E000DE00B3F8C500631116039398260033138D
:1011F0001F011343F3FF3377E300B318180133E7FC
:10120000E8006397F70750C98506E39AC6FD18C141
:101210001307F00F6375B70454412146854E3D4FC7
:10122000930F800293028004414EB398CE0033F7AF
:1012300015016392E8021317260001173313EF001C
:101240001343F3FFB376D3003317E800D98E6395C9
:10125000F703232A15010506E319C6FD54C1828050
:1012600037170140E310E5F603C7318121DF81BF65
:10127000E39C57F810C949BFE39F57FC2328150189
:10128000D9BFB71701406316F50083C7318191C3F9
:10129000B5814CC98280B71701406316F50083C73A
:1012A000318191C3B58119C20CC982804CC9828039
:1012B000EFE21FEC79712A84462168082EC67D2250
:1012C000925737470F001307072433D7E702C204AA
:1012D000C18093F404FCC204C180B245616513056A
:1012E000056A131607014182D18C46A01620C2065A
:1012F000C182F99AC206C18216A094416369D504DD
:101300008606B3D7D7029146139707014183BA8760
:101310006373D700914705064206C2074182C18325
:1013200012B05EAC1E20DA21B62593E717001EA08E
:101330001E20558FC207C18393F757BFD98F1EA0B8
:101340009A25DE25D98F1EA445616FE0BFE4EA210E
:1013500031667D16631DC5020D46B386C602B3D73E
:10136000D702C207C1839396470199E293E717001A
:10137000A166D58F9306C0123307D7029306803E2D
:101380003347D7020507420741831AB059BF654664
:10139000B386C602B3D7D7029166C207C183D58F81
:1013A000D9B71E2189C593E717001EA18280C20705
:1013B000C183F99BC207C183CDBF1E2189C593E7B5
:1013C00007101EA18280C207C18393F7F7EFC207FF
:1013D000C183C5BF1E2189C593E707201EA1828056
:1013E000C207C18393F7F7DFC207C183C5BF1E21C0
:1013F00089C593E707401EA18280C207C18393F786
:10140000F7BFC207C183C5BF0EA9828093F7E50F5E
:1014100019C293E71500C207C1831EA982805E2905
:101420000A2D42055D8D6D8D220521810D8D1335AF
:1014300015008280411102C402C693D7C5012AC695
:101440003EC4A247A205A18199CBB247D1073EC6AF
:10145000B247884341016D8D3335A0008280B24789
:10146000C181E107EDB723AAA1808280371702402E
:101470005C439146B18B6385D700A1466382D70652
:10148000B7177A00938707201CC1371602405C42C9
:1014900037070020130707019183BD8BBA97942368
:1014A0001C41B3D7D7005CC15442A1829D8ABA9631
:1014B0009422B3D6D70014C55442AD829D8A369784
:1014C0001823B3D7E7005CC55842398393763700B9
:1014D0001387418036971823B3D7E7021CC982804F
:1014E0005C435843C166C983BD8B758F8907C54668
:1014F0006393D700C94701EF3747024003270780AE
:10150000418B09CF37177A001307072021A8371717
:10151000024058439316E700E3D606FE37173D0016
:1015200013070790B387E70285B799C537170240BD
:101530001C4F5D8D08CF8280B7170240984F13452E
:10154000F5FF798D88CF828099C5371702405C4FAF
:101550005D8D48CF8280B7170240D84F1345F5FF05
:10156000798DC8CF82801E2189C593E717001EA1FF
:101570008280C207C183F99BC207C183CDBF0EB56C
:1015800052A982801E21C207C18393F7F7F8DD8D2F
:101590000EA182801E25C207C18393F7F7F8DD8D67
:1015A0000EA582805E21C207C18393F7F7F8C207B8
:1015B000C1835EA15E21DD8D4EA182801E25C20702
:1015C000C183E19BC207C1831EA51E25DD8D0EA52B
:1015D00082804EB58280B707002083A7070837179F
:1015E0007A0013070720B3D7E70293F7F70F238D8D
:1015F000F1801307803EB387E702239CF18082804D
:10160000B7F700E0D8438146799BD8C303C7A181CF
:101610003306A70290CBD4CB98431367070198C336
:1016200098431367170298C3D843058B75DF984317
:10163000799B98C38280B7F700E0D8438146799BB5
:10164000D8C303D781813306A70290CBD4CB98436C
:101650001367070198C398431367170298C3D843C9
:10166000058B75DF9843799B98C3828037071000FC
:101670007D1701113373B70093D84601758F935EC0
:10168000D60122CC26CA0E0393D445019357D50127
:101690000E0706CE4AC84EC693F8F87F130EF07FA9
:1016A00033E7EE0093F4F47F13D4F50133E36700DE
:1016B000131F3500FD82931E36006380C81993C640
:1016C0001600B38514416305D4126351B018638BBF
:1016D000081AB70780005D8F6381C45993078003A0
:1016E00063C4B734FD4763C5B748930700028D8FC5
:1016F000B3D9BE003318F700B39EFE00336838013B
:101700003357B700B339D001336838013303E340AE
:10171000B3090F41B3373F013306F34093178600F7
:1017200063D30724370980007D1933792601630FBD
:10173000092C4A85EF10C07C130785FF9307000230
:10174000998FB3D7F9003316E900D18FB399E90027
:101750006344972A058F13061700FD4663C5C63AF2
:1017600013070002118FB3D6C9003398E9003397ED
:10177000E700558F33380001B369070133D6C7003E
:10178000814493F7790081CF93F6F90091476388FC
:10179000F6009386490033B836014296B68993170E
:1017A000860063D6071C138714009307F07F058813
:1017B0006306F720B70780FFFD17F18F1398D70155
:1017C00093D93900A60733683801B1831377F77FBF
:1017D0009396C7005207B1827E04D98EC18EF24023
:1017E0006244D2444249B2494285B685056182804D
:1017F0006356B00A638A0812B70780005D8F63875B
:10180000C42D9307800363C7B718FD4763D2B73C65
:10181000138805FE93070002B3590701638AF50098
:1018200093070004B385B7403317B700B3EEEE005B
:101830003338D0013368380195A2B367D701938557
:10184000148099E393C61600630AD404D1E1938708
:10185000140093F7E77F6399071EB367E3013368CA
:10186000D701639204166382073C6316084213187B
:1018700035009316D3011358380033E80601935707
:10188000330019A2B367D7016385071A9387F5FF61
:10189000638B073A638CC523BE8589B56399051CA4
:1018A0009386140093F7E67FC1EFB367E30163907B
:1018B0000436638D0744B367D701639407460E056A
:1018C0001318D3010D813368A800935733006DA816
:1018D000B385984063970420B367E301638D0730B5
:1018E0009387F5FF638907401305F07F6383A52085
:1018F000BE859307800363C2B72AFD4763C8B73C20
:10190000930700028D8F3318F3003356BF00B317CF
:10191000FF003368C800B339F0003353B3003368B5
:10192000380133076740B5ACB367D701638307104D
:101930009387F5FF638F071E6380C52FBE85D1B5E2
:101940009307F07F638BF606FA9E33B6EE01B3077A
:10195000E300B2971398F70193DE1E00B369D80134
:1019600013D61700B68493F77900E39F07E0931727
:10197000D60113D839003368F800A685935736008E
:101980001307F07F6380E506B207B18313F7F57F95
:1019900005883DBD3367D7013338E000B309E8015E
:1019A000B3B7E9013386670093178600E3DD07FAD2
:1019B00085049307F07F639CF41805881307F07F74
:1019C0008147014831B5639107106301083C131842
:1019D00036009317D701135838003368F80036845F
:1019E00093573700B367F800E9DB01441307F07F32
:1019F000B70708000148E9BB370680FF7D167D8EDA
:101A000093F77900998CE39107D895B74E85EF103D
:101A1000204F13078501FD47E3D2E7D2130685FF68
:101A2000B397C90081492DB33368D701333800011A
:101A3000C5B1131835009317D30113583800336814
:101A4000F800935733002DBFB309DF413309E3405A
:101A500033363F013309C9409317890063CA072011
:101A600033E82901E31508CC8147014431BFB38530
:101A7000984063810414B70680009307F07F3363B6
:101A8000D3006381F8209307800363CCB722FD471E
:101A900063C9B72C930700028D8F3318F300B35638
:101AA000BF00B317FF003368D800B339F0003353D9
:101AB000B300336838011A97B309D801B3B7D90115
:101AC0003386E700C684CDB5E31108F2131835005C
:101AD0009317D301135838003368F8009357330035
:101AE00011B7370580009307F07F3363A300E392BB
:101AF000F8E00E061318D7010D823368C80093571B
:101B000037003684C5B505179306000233D7E700C2
:101B1000630AD600930600043386C6403396C70096
:101B2000B3E9C90033383001B369E80001468144A4
:101B30001DBDB309DF01B307E30033BFE9013386FD
:101B4000E701931786008544E3DF07E08944B70780
:101B500080FFFD17F18F13D7190013F819003368B0
:101B600007019399F701B3E9090113D6170011B9D9
:101B7000138805FE93070002B3590701638AF50035
:101B800093070004B385B7403317B700B3EEEE00F8
:101B90003338D00133683801A5BE3363E3013338ED
:101BA0006000B3890E41B3B73E013306F740C684E7
:101BB0003684ADB6B367E301638707189387F5FFF3
:101BC000638C071C9306F07F638ED50ABE8565BDC6
:101BD000930700028D8FB3D9BE003318F700B39E70
:101BE000FE00336838013357B700B339D00133688A
:101BF00038013A9365B3131836009317D701135879
:101C0000380033E8070136849357370095BBBDCBC6
:101C10003367D701E31B07DC0E051318D3010D81D1
:101C20003368A8009357330075BBE30F08E213181D
:101C300036009317D701135838003368F8003684FC
:101C40009357370091B3B309DF41B307E340333F04
:101C50003F013386E7418544D1B41318350093160C
:101C6000D3011358380033E80601935733009DBB66
:101C7000B389EE413306674033B93E01330926414B
:101C8000368475B40E061318D7010D823368C80068
:101C90009357370081BBB309DF41B307E3403336C5
:101CA0003F013386C7409317860063D7070AB3897D
:101CB000EE41B3076740B3BE3E013386D741368459
:101CC000C9B43363E30133386000FDB3138805FE04
:101CD00093070002B3590301638AF50093070004D8
:101CE000B385B7403313B300336F6F003338E0016F
:101CF000336838017DB5B389EE41B3076740B3BEA1
:101D00003E013386D7413684854409BC131836001A
:101D10009317D701135838003368F80093573700EA
:101D2000A5B1B309DF01B307E30033BFE90133868F
:101D3000E70193178600E3D807C2B70780FFFD17B6
:101D40007D8E85440DB10E061318D7010D823368C0
:101D5000C800935737002DB133E8C900E30608D017
:101D600019B1138805FE93070002B3590301638A72
:101D7000F50093070004B385B7403313B300336F06
:101D80006F003338E001336838013DB30144130775
:101D9000F07FB70708002DBCB309DF01B307E300EC
:101DA000B3BED9013386D70169BB41113707800023
:101DB0007D1713D8750126C2935475013373A7009C
:101DC00093F4F40FB376B7004AC01378F80F1359A1
:101DD000F50106C622C4FD819A8726854A86131E10
:101DE0003300939E3600B3880441630AB90E6350F2
:101DF000100D630408149307F00F638BF414B707F6
:101E00000004B3EEFE00ED4763C1172993070002FB
:101E1000B3871741B397FE00B3D81E01B337F00064
:101E2000B3E7F800B307FE4013975700635E071847
:101E3000370400047D147D8C2285EF10600C6D1535
:101E4000B317A4006348951A058D130415001307F2
:101E50000002018F3397E7003337E000B3D78700E4
:101E6000D98F814413F7770019C713F7F70091460C
:101E70006303D700910713975700635B071485042A
:101E80001307F00F4A866383E4169A07A58313F5B8
:101E9000F40FB2402244A6079314750113D597009E
:101EA000458D7E0692440249518D4101828063999D
:101EB000080A138714001377E70F6317071463905A
:101EC0000422630D0E1EE3860EFCB307DE4113975A
:101ED000570063500722B387CE412E8961B7635CF8
:101EE000100B630E08089307F00F6383F406B7071F
:101EF0000004B3EEFE00ED4763C9171F930700020D
:101F0000B3871741B397FE00B3D81E01B337F00073
:101F1000B3E7F800F297139757006357070A850451
:101F20001307F00F6384E40CB706007E13D7170085
:101F3000FD16858B758FD98F35B7638D0E08FD180B
:101F4000B307DE41E38208EE9307F00FE39DF4EA66
:101F5000630D030801461305F00FB707400015BFD6
:101F600033079840EDE863020E147D1763080718E5
:101F70009307F00F6319F80E2E893683D1BF638B58
:101F80000E04FD18B307DE01E38708F89307F00F8E
:101F9000E393F4F675BF63950808850413F7E40F1F
:101FA0006313071263170510630F0E14E3830EEE1D
:101FB000B307DE01139757008144635707003707C3
:101FC00000FC7D17F98F854413F77700E31F07E8BE
:101FD00013D337009307F00FE38CF4F693179300B5
:101FE000A58313F5F40F4A866DB54A861305F00FE5
:101FF000814745B5370700FC7D17F98F13F7770048
:10200000898CE31407E6E9B73304DE4193175400E3
:1020100063C3070CE31204E201460145814795BD05
:1020200033079840ADC49307F00FE308F8F4B707FF
:102030000004336EFE00ED4763CCE70C930700020B
:10204000998FB317FE003357EE00B337F000D98FE6
:10205000F697C284C9B59307F00FE30FF8F0B707FE
:102060000004336EFE00ED4763C3E70893060002E9
:10207000998EB316DE00B357EE003337D000D98FF8
:10208000B387FE40C2842E8945B3854761BB630E8A
:102090000E067D17B307DE01C284E30E07E6930741
:1020A000F00FE31AF8F8368365B53683C2842E89BB
:1020B00015B7E3040EECE38D0EE869BD638D0E02E7
:1020C0002E86B687F9B39307F00FE381F4F2B307D6
:1020D000DE018583D5BD3384CE412E89B1BBE31C9F
:1020E0000EFCE3890EE62E8949BD854725B5854757
:1020F00041BFE39B07EC0146814761BBB387CE41FB
:10210000C2842E8915B3B68769B33683C284D9B524
:1021100085473DBF3971935775014AD856D25ECE77
:10212000931A95001359F50106DE22DC26DA4ED605
:1021300052D45AD093F7F70F93DA9A00CA8B63827E
:1021400007121307F00F6384E7128E0A37070004A3
:10215000B3EAEA00138A17F80144014B93D77501DB
:102160009394950093F7F70FA58093D9F501FDC7D8
:102170001307F00F6387E7028E04938717F837077A
:102180000004D98C330AFA408146558C1737000079
:10219000130707960A043A941C4033493901BA9749
:1021A0008287130A1AF0F9E88946558C1737000020
:1021B000130707980A043A941C4033493901BA9727
:1021C000828701491307F00FB70740001395970066
:1021D000F25062549317770125817E095D8D336536
:1021E0002501D2544259B259225A925A025BF24BFB
:1021F000216182801307F00F8147C9BFA68ACE8B69
:10220000368B8947630BFB1A8D47E30CFBFA854736
:10221000630AFB0A1307FA0713F91B006357E0125E
:1022200093F77A0099C793F7FA0091466383D70032
:10223000910A93974A0063D90700B70700F8FD1782
:10224000B3FAFA0013070A089307E00FE3C4E7FAAA
:1022500093976A00A5831377F70F8DBFB9E485467E
:10226000A9B763940A021144014A054BC5BD63999D
:102270000A002144130AF00F094BCDB58D4631B742
:102280003144130AF00F0D4BD1BD56852EC6EF0019
:1022900030479307B5FFB39AFA009307A0F8338A43
:1022A000A7400144014BB24555BD2685EF0050457E
:1022B0001307B5FFB307AA00B394E400138A6707B6
:1022C0008146E1B513F91B000147814701B741661B
:1022D000139554007D1693570501698E63FA9A0A87
:1022E000B3D5FA027D1AD68601473388C502B3F604
:1022F000F602C206558F637B07012A979386F5FF86
:102300006368A70A6376070BF9152A973307074115
:10231000B356F7023377F702B38AC6029317070161
:1023200063FB5701AA971387F6FF63E1A70863FFD2
:102330005707F916AA97C205B38A5741D58DB33A04
:102340005001B3EA5501CA8BF1B58546998E11C784
:102350006D4601478147E34BD6E6130AEA09339AF3
:102360004A01B3D7DA00B33A4001B3E7570113F794
:10237000770019C713F7F70091466303D700910759
:1023800013975700634807029A07A58301473DBD8D
:1023900093D61A00B3D5F6021397FA014183338816
:1023A000C502B1B7CE8B368B814AA1BDBA8661B763
:1023B000B685A9BF0547814711BD13F91B00130757
:1023C000F00F814721B593567501B7078000FD17BF
:1023D00013D6750193F6F60F1308F00FB3F8A700A4
:1023E0001357F501ED8F1376F60FFD816381060318
:1023F000630C06018DE211E2B1C3638E080263052E
:10240000B70405451DE78280F5D779558280E39EA4
:1024100008FE6309D60211E2EDD7E314B7FEE342EA
:10242000D6FE63C7C600E3EE17FD0145E3FDF8FCE9
:1024300001E77D558280F5DD054582800145E39207
:1024400008FC8280F9DBD1B78146E1BF9356750164
:10245000B7078000FD1713D6750193F6F60F130822
:10246000F00FB3F8A7001357F501ED8F1376F60FB1
:10247000FD81638706036309060185EA11EA89EB9A
:102480000145639B080082800945F5FFE5DA31A824
:10249000638C08026300B704054575D77D558280BB
:1024A0000945639808026304D60211E2F5D7E315E3
:1024B000B7FEE343D6FE63C7C600E3EF17FD014551
:1024C000E3F3F8FC19E3D9BFF1D905458280E5D3E0
:1024D000828082808146C5B7797122D413547501F8
:1024E0004ECE52CC9319950006D626D24AD056CA63
:1024F0005AC81374F40F93D99900135AF50169C49B
:102500009307F00F6308F40E939739003707000420
:10251000B3E9E700130414F88144014B13D77501A4
:10252000939A95001377F70F93DA9A0013D9F50170
:1025300045CF9307F00F630CF7028E0A130717F8C5
:10254000B7070004B3EAFA003A94014633452A017A
:10255000BD47AA869305140063E297101727000071
:10256000130707618A04BA949C40BA9782871304C0
:10257000F40F63980A0C93E424000946C1BF014597
:102580001307F00FB7074000B2502254A6075E07AA
:10259000A5837E05D98F92540259F249624AD24AE4
:1025A000424B5D8D45618280CA86D689328B8947D0
:1025B0006301FB0A8D47E304FBFC85473685631204
:1025C000FB1A01478147C9B7639E090413D77501F8
:1025D000939A95001377F70F91440144054B93DAD2
:1025E0009A0013D9F50131F7639D0A0093E41400B2
:1025F0000546A9BF63930902A1441304F00F094BD8
:1026000031BF5685EF00D00F9307B5FF098CB39A01
:10261000FA001304A4F8014615BFB1441304F00FE7
:102620000D4BEDBD4E852EC6EF00900D9307B5FF07
:102630001304A0F8B399F900098C8144014BB24509
:10264000F1BD93E434000D4611B78947D286E313F8
:10265000FBF636851307F00F81473DB741639306BC
:10266000F3FF13D6090193D80A01B3F7D900B3FADF
:10267000DA0033885703B389F80213570801B30A05
:102680005603D6994E9733061603637357011A966D
:10269000C167FD17B376F7003378F800C206C2961B
:1026A0009399660093570701B3393001E982B297D5
:1026B0009A07B3E6D900B3E9D7009397490063D9E5
:1026C000070013D7190093F71900B369F7002E8498
:1026D0001307F4076350E00493F7790099C793F761
:1026E000F90091466383D70091099397490063D914
:1026F0000700B70700F8FD17B3F9F900130704083E
:102700009307E00F63CBE70493976900A5831377E2
:10271000F70F9DBD8547B386E74011C76D4601475A
:102720008147E343D6E61307E4093397E9003337DB
:10273000E000B3D7D900D98F13F7770019C713F783
:10274000F70091466303D700910713975700634C36
:1027500007009A07A583014705BD1307F00F8147BE
:1027600025B52E84B5B70547814739BD37078000A9
:1027700041117D179356750113D87501B377A700E2
:1027800093F6F60F935EF5013376B70026C24AC082
:102790001378F80F06C622C41303F00F3E8E368955
:1027A000F684139F3700FD8113153600B388064168
:1027B0006302681093C51500638CBE106354100D3E
:1027C000631008106304051EFD18B307AF4063864D
:1027D00008029307F00F6388F616ED4763C71729C1
:1027E00013070002330717413317E500B3571501EC
:1027F0003337E000D98FB307FF4013975700635179
:10280000071A370400047D147D8C2285D52D6D15A3
:10281000B317A400634E251B33052541130415008F
:1028200013070002018F3397E7003337E000B3D777
:102830008700D98F014913F7770019C713F7F700FD
:1028400091466303D700910713975700635E0714FF
:10285000930619001307F00F93FE14006386E61623
:102860009A07A58393F6F60FA607B240224413D524
:102870009700DE069397FE01558D924402495D8DC7
:10288000410182806392080A138716001377E70FCD
:10289000631B07146394062263020F2071D5B307EC
:1028A000AF401397570063550722B307E54101492D
:1028B000AE8451B7E30005F0638ABE0AE35410FD0D
:1028C0009307F00F6381F608B70700045D8D31B7F9
:1028D000635E1009630108089307F00F6385F6062D
:1028E000B70700045D8DED4763C0171F1307000293
:1028F000330717413317E500B35715013337E000AD
:10290000D98FFA9713975700635C070805091307D7
:10291000F00F630BE90AB706007E13D71700FD1608
:10292000858B758FD98F01BF3307D840639506100B
:10293000630D0F147D176303071A9307F00F6314D9
:10294000F810AE84328E630F0E06814E9306F00FA0
:10295000B707400011BF39C9FD18B307AF00E383C3
:1029600008FA9307F00FE390F6F8F1BF63990808AF
:10297000138916001377E90F63160712639B06107D
:1029800063030F16E30205EEB307AF00139757007A
:10299000014963570700370700FC7D17F98F054988
:1029A00013F77700E31C07E813DE37009307F00FF7
:1029B000E30BF9F893179E00A5839376F90F93FE26
:1029C00014005DB593FE14009306F00F814769BDB6
:1029D000370700FC7D17F98F13F777003309A940FB
:1029E000E31E07E4D1B73304AF409317540063C329
:1029F000070CE31C04E0814E81468147B5B53307DF
:102A0000D840B5C69307F00FE30EF8F2B7070004FD
:102A1000336FFF00ED4763CDE70C93070002998FFA
:102A2000B317FF003357EF00B337F0005D8FB307E4
:102A3000A7004289C1BD9307F00FE304F8F0B70780
:102A40000004336FFF00ED4763C2E70893070002FD
:102A5000998FB317FF003357EF00B337F000D98FCA
:102A6000B307F5404289AE8449BB854769B3630E1D
:102A70000F067D17B307AF004289E30507E8930708
:102A8000F00FE319F8F8328E7DBD328E4289AE84A4
:102A900031BFE3090FEAE30805EA45BD0DCDAE8E6F
:102AA000B287D9B39307F00FE300F9F2B307AF0091
:102AB0008583FDB53304E541AE8481BBE31D0FFC86
:102AC000E30505E8AE84BDBD854725BD854749BF03
:102AD0000149E39707EC814E814779B3B307E5419C
:102AE0004289AE8419BBB28741B3328E42897DBD23
:102AF000054735BF37068000135775019307F6FF6A
:102B00001377F70F9305E007B3F6A7009357F50186
:102B100063FCE5009305D00963FAE5003705008002
:102B20001345F5FF3E95828001458280930550094B
:102B3000D18E63CDE500130660093307E64033D735
:102B4000E6003305E040F5F33A8582801307A7F6E7
:102B50003397E600FDB7411106C622C426C20DCD4B
:102B60009357F54133C4A7001D8CAA842285492EB2
:102B70009307E0093387A74093076009FD8063CC82
:102B8000E702A1469377F70F63D5A60061153314CA
:102B9000A4002604258021A0814481470144260405
:102BA00013559400B2402244DE07FE045D8D458D2E
:102BB0009244410182809307900963DDE700930707
:102BC000B5019546B317F400898E3354D400B3375A
:102BD000F0005D8C954763D6A7009307B5FF3314CB
:102BE000F400B70600FCFD16937774003376D4002A
:102BF00085C39377F4009145638CB7001106931752
:102C0000560063D707009307F009758E3387A740F6
:102C10001314660025809377F70F51B7411106C64C
:102C200022C415CD2A84E92C9307E0093387A740F5
:102C30009307600963C0E704A1469377F70F63D554
:102C4000A60061153314A40026042580260413551C
:102C50009400B2402244DE075D8D41018280014430
:102C6000260413559400B24022448147DE075D8D4F
:102C7000410182809307900963DDE7009307B50166
:102C80009546B317F400898EB337F0003354D4005F
:102C90005D8C954763D6A7009307B5FF3314F40006
:102CA000B70600FCFD16937774003376D40085C315
:102CB0009377F4009145638CB70011069317560083
:102CC00063D707009307F009758E3387A740131465
:102CD00066002580260413559400B2402244937761
:102CE000F70FDE075D8D4101828013577501137761
:102CF000F70F41119307170022C426C21314950041
:102D000006C693F7E70F25809354F50185C79357BF
:102D10003400130707387604B2075207B1831395BE
:102D2000F401D98FC98FB240228522449244BE85D6
:102D30004101828005EB39C42285D922A94763C6A7
:102D4000A7042D47098F930755013357E400331427
:102D5000F4009317C70013079038098FB1831377D6
:102D6000F77F5DBF01CC13573400B7070800D98F38
:102D7000B2077604B1831307F07F79BF1307F07FA2
:102D8000814759BF0147814741BF130755FF33179B
:102D9000E40001447DBF93D645019397C50093F6A7
:102DA000F67FB183138616008E071357D50113766D
:102DB000E67FFD815D8F9318350035CE138806C8F8
:102DC0009307E00F63DD0701814713959700930692
:102DD000F00FDE062581FE05558D4D8D82806355F1
:102DE000000B931765000E07B337F000D98F93D807
:102DF000D801B3E7170113F777006301071013F742
:102E0000F70091466303D7009107370700047D8FD1
:102E100075C7130718001306F00F9376F70FE30535
:102E2000C7FA9A07A58313959700DE062581FE054C
:102E3000558D4D8D8280B367170199EE85CF9547EB
:102E40009A07A5831395970093F6F60FDE06258162
:102E5000FE05558D4D8D8280A5DBB707400013958B
:102E600097009306F00FDE0681452581FE05558DFE
:102E70004D8D82808147139597008146DE0625811E
:102E8000FE05558D4D8D8280A5576348F804F9479E
:102E900037068000B38707417D45598E6351F5049D
:102EA000795733070741130500023357E60063885B
:102EB000A700938626CAB316D600B3E8D800B33766
:102EC0001001D98F13F77700014815FB13975700AE
:102ED0008546E34807F48146A5B781468DB79386BA
:102EE00026C83397D8003337E000B316D600B3D8DE
:102EF000F800B367D700B3E7F800E9B7C28689B72F
:102F0000C167637CF5029307F00F1307000263EBC0
:102F1000A700972700009387A7C9AA97882333059E
:102F2000A7408280218197270000938767C8AA97CE
:102F3000882361473305A7408280B7070001636D8E
:102F4000F500618197270000938787C6AA97882399
:102F500021473305A740828041819727000093874E
:102F600027C5AA97882341473305A74082809387C6
:102F70008180AA858843DDA893878180AA858843BC
:102F8000A1A063F1A504B386C500637DD502934576
:102F9000F6FF8147FD176393F50082803387F600C3
:102FA000034807003387C7002A9723000701DDB7CE
:102FB0003387F50014233307F500850714A3E319BD
:102FC000F6FE82808147E5BFCDC183A7C5FF4111D1
:102FD00022C406C626C21384C5FF63D307003E94ED
:102FE000AA84F9229387C1819C4399EB2322040090
:102FF00023AE81802244B24026859244410155AAE5
:10300000637EF40014403307D4006396E7009843CE
:10301000DC43369718C05CC0E1BFBA87D84319C3F8
:10302000E37DE4FE94433386D700631F860010409F
:10303000B29694C33386D700E31EC7FA10435843B1
:10304000B29694C3D8C37DB76375C400B1479CC022
:1030500055B71040B306C4006316D7001443584355
:10306000B29614C058C0C0C371B78280011126CA7D
:1030700093843500F19806CE22CC4AC84EC6A104EE
:10308000B14763F1F404B14463E0B4042A890D222A
:103090009387C18198433A8431E0938701829C43AE
:1030A00091E781454A85512823A0A182A6854A85BA
:1030B0006920FD5963173507B1472320F9004A8578
:1030C000CD2829A0E3D204FCB1471CC10145F24040
:1030D0006244D2444249B249056182801C40858FD6
:1030E00063CE0702AD4663F6F6001CC03E9404C0F2
:1030F00031A05C406312870223AEF1804A855528D7
:103100001305B4009307440061993307F54061D378
:103110003A94898F1CC065BF5CC3CDB722874040FD
:10312000A5BF130435007198E30385FCB305A440E3
:103130004A852120E31D35FB41B7411122C42A8471
:103140002E8523A4019406C6EF00F008FD576317EF
:10315000F500938781949C4391C31CC0B2402244E4
:1031600041018280AA87850703C7F7FF6DFF33857A
:10317000A7407D158280B7070080197193C7F7FFBC
:103180003ECE3EC8C1772EC42ECC938787202C001C
:1031900086DE3ECAFD28A24723800700F65009615B
:1031A000828093878180B2862E86AA858843E1B784
:1031B0008280828001114AC803A9850022CC52C4B2
:1031C0005AC006CE26CA4EC656C22E84328B368AC6
:1031D00063E72609DE2513F7074841C304408C49FD
:1031E0005848AA8AB389B4408D44B384E40209479D
:1031F000B3C4E402138716004E9763F3E400BA8465
:1032000093F70740ADCFA68556858D352A891DE1F8
:10321000B14723A0FA005E247D5593E707045EA41E
:10322000F2406244D2444249B249224A924A024B95
:10323000056182800C484E8649255E2493F7F7B7D6
:1032400093E707085EA42328240144C84E99B38459
:1032500034412320240104C4528963732A01528912
:1032600008404A86DA85EFF0DFD11C440145B38778
:1032700027411CC41C403E992320240155B72686B3
:103280005685ED252A8961F10C485685EFF0DFD38C
:1032900041B7DE25717126D34AD14ECF06D722D54C
:1032A00052CD56CB5AC95EC762C566C393F70708AD
:1032B000AA892E89B284B9C39C49A9E39305000465
:1032C00036C6EFF0BFDA2320A9002328A900B246B2
:1032D00015E1B14723A0F9007D55BA502A549A54FC
:1032E0000A59FA496A4ADA4A4A4BBA4B2A4C9A4C6A
:1032F0004D61828093070004232AF900930700029E
:10330000A30CF1029307000302DA230DF10236CE7B
:10331000930B5002972A0000938A8A99054C294BF7
:1033200026841C2099C363977709B30C9440638D5E
:103330000C00E6862686CA854E85AD3DFD5763089E
:10334000F518D256E69636DA1C2063820718FD5728
:103350009304140002D002D63ED202D4A301010687
:1033600082DC8C20154656852D2B13841400825741
:1033700021E513F7070109C713070002A301E106BE
:1033800013F7870009C71307B002A301E1069420D1
:103390001307A002638AE602B257268481462546B7
:1033A000182093051400130707FD6372E6068DC607
:1033B0003ED61DA00504B5B7330555413315AC0005
:1033C000C98F3ED0A28471BF72479306470018434D
:1033D00036CE634707023AD618209307E002631DF2
:1033E000F70418309307A002631BF702F2470904A1
:1033F000138747009C433ACE63C107023ED22DA8F3
:103400003307E04093E727003AD63ED0F1B7B387C1
:10341000670385462E84BA9761B7FD57C5B7050483
:1034200002D28146814725461820930514001307D0
:1034300007FD6374E606F9F20C200D46172500001F
:1034400013058587B92911CD972700009387C78673
:103450001D8D93070004B397A700025505045D8DE9
:103460002AD00C2019461725000013052585930442
:103470001400230CB102352125C597D7FFFF938790
:1034800067B895E70257F2471377071009CF9107FE
:103490003ECED257D2973EDA61B5B38767038546F1
:1034A0002E84BA9751B79D07E19BA107D5B778083D
:1034B00097060000938646D04A860C104E859700EA
:1034C0000000E7000000FD572A8AE314F5FC83574B
:1034D000C9007D5593F70704E39107E05255F5BB0A
:1034E000780897060000938626CD4A860C104E85F4
:1034F000012AD1BF797156CA9C49BA8A984522D40B
:1035000026D24ECE52CC06D64AD05AC85EC6AA891A
:103510002E84B284368A63D3E700BA879CC00347FF
:10352000340419C385079CC01C4093F7070281C768
:103530009C4089079CC00329040013796900631A21
:103540000900130B9401FD5B5C449840998F634C18
:10355000F9041C408346340493F70702B336D000C5
:10356000A5EB13063404D2854E85829AFD5763037A
:10357000F5041C4011469840998B5444814463974C
:10358000C700B384E64063D3040081441C44184858
:103590006354F700998FBE94014969047D5B639879
:1035A0002405014509A885465A86D2854E85829A0A
:1035B000631E75017D55B250225492540259F2494E
:1035C000624AD24A424BB24B456182800509ADBF87
:1035D0003307D40013060003A301C70403475404B0
:1035E00093871600A2978906A381E7049DBF8546AD
:1035F0002286D2854E85829AE30E65FB050945B782
:10360000797122D426D24AD04ECE06D652CC56CA92
:103610005AC8B689942D930790063289AA842E84BD
:1036200013863504638DF60263E2D706930780059F
:103630006386F61863EDD700638E06209307300487
:10364000638EF60A930A24042301D404C9A09307C5
:1036500030066385F60A93074006E395F6FE1C40A4
:10366000084393F6070893054500C5C61C410CC3E3
:1036700063D807001307D002B307F040A301E404A6
:103680009716000093860664294765A893070007EC
:103690006382F61663E5D7029307E0066389F6189E
:1036A0009307F006E390F6FA0C401C4313F8050864
:1036B000138547006307080608C39C4385A8930742
:1036C0005007E383F6FE930780076389F61293079A
:1036D0003007E399F6F61C43D041814593864700B5
:1036E00014C383AA070056856D2A01C533055541C9
:1036F00048C05C401CC8A301040461A81C43930A91
:103700002404938647009C4314C32301F404854793
:10371000D5B793F607041C410CC3B9DAC207C187B9
:1037200081BF93F5050408C3C9D99E231307F0068A
:103730006387E60E971600009386C6582947A301B3
:1037400004044C400CC463C5050008406D9908C0D2
:1037500099E3B28A89CDB28AB3F5E702FD1AB6952C
:103760008C212380BA00B3D5E70263F0E70CA147B0
:10377000631EF7001C40858B91CB58401C4863C7E3
:10378000E70093070003A38FFAFEFD1A33065641A4
:1037900010C84E87CA867000A2852685EFF09FD597
:1037A0007D5A631D450B7D55B250225492540259E7
:1037B000F249624AD24A424B45618280A382D504D3
:1037C00097160000938606500C40084313F805082E
:1037D0001C411105630D080208C313F7150001C74A
:1037E00093E505020CC04147B9FB0C4093F5F5FD8C
:1037F0000CC0B1B79C4193E707029CC193078007B7
:10380000A302F404971600009386064D75BF13F8C3
:10381000050408C3E30308FCC207C1837DBF9716F4
:1038200000009386264A214719BFAE8735B79441D9
:103830001C43CC4913F806081385470063060800AB
:1038400008C39C438CC339A008C393F606049C4369
:10385000F5DA8EA323280400B28A25BF14485686C1
:10386000CA8526858299E30045F51C40898B8DE742
:10387000B2474844E35AF5F23E853DB78546568641
:10388000CA8526858299E30065F3050A5C443247C0
:10389000998FE345FAFEE9BF014A930A94017D5BE3
:1038A000F5B793F5F50F2A966314C500014582809C
:1038B0001C21E38EB7FE0505C5BFB3C7A5008D8BE0
:1038C0003307C50081E78D4763EDC700AA87637E94
:1038D000E508942185078505A38FD7FEE3EBE7FE76
:1038E000828093763500AA8789CA94218507850549
:1038F000A38FD7FE93F63700C5BF9376C7FF138615
:1039000006FE63F0C70683A3050083A2450083AFCC
:10391000850003AFC50083AE050103AE450103A3D7
:10392000850183A8C5019385450223A0770003A8DC
:10393000C5FF23A2570023A4F70123A6E70123A86C
:10394000D70123AAC70123AC670023AE17019387D1
:10395000470223AE07FF75B790419107910523AE4B
:10396000C7FEE3EBD7FEE3E6E7F6828081E5B285AA
:103970006FF0CFEF011122CC06CE26CA4AC84EC640
:10398000328401EEEFF04FE40149F24062444A858F
:10399000D2444249B24905618280AE84AA89152089
:1039A0002689E37485FEA2854E85EFF02FEC2A89E7
:1039B00069DDA68522861137A6854E85EFF0CFE01A
:1039C000E9B783A7C5FF1385C7FF63D50700AA958D
:1039D0009C413E958280938741829C4391C73E954E
:1039E00023A2A1823E8582809387C1943E9523A223
:1039F000A1823E85828000000000000000000000DF
:103A000000000000000000000000000000000000B6
:103A100000000000000000000000000000000000A6
:103A2000000000000000000000F8FCFE00000000A4
:103A30000000000000000000007FFFFF0000000009
:103A4000000000000000000000F8F8F9000000008D
:103A5000000000000000000000FEFEFEFEFEFE0270
:103A60000000000000000000000000000000000056
:103A70000000000000000000000000000000000046
:103A80000000000000000000000000000000C03E38
:103A90000000C0FE7E0600000000010101F9FF0FDA
:103AA0000101F10F01010101000101E1FF3F0101ED
:103AB000C13F01010101000000F0F8F40E0E0F0FEC
:103AC0000F0E0E0E02000000001F173F3838383866
:103AD000383838D0D0E00000000080C0E0E060A0BE
:103AE00060E0E05F3F1F000000F8F8F60E0E0E0EDB
:103AF0000E0EF4F8F00000000003070F1C1C1C1C45
:103B00001C1C0B87C3C0441F00000000000080E0A5
:103B1000F07C3E0F0701000000F0F8F40E0E0E0ED0
:103B20000E0E0E84C080000000EFC7C70000101802
:103B3000383838D7EFD73838001F3F5FE0E0E0E093
:103B4000E0E0E05F3F1F000000FEFEFE000000001E
:103B50000000000000000000000000000000000065
:103B60000000000000000000000000000000000055
:103B7000000000000000000000F0FCFE0E0E060039
:103B8000000000000000000000EFC7C700000000B8
:103B90000000000000000000001F7FFFE0E0C00008
:103BA0000000000000000000020E0E0EF4F8F0000D
:103BB000000000000000000000000000C7C7EF0088
:103BC000000000000000000080E0E0E05F3F1F0018
:103BD0000000000000000000008080C0BE7EFEC02B
:103BE000C080000000000000030703010100010184
:103BF00003030300000000000000000000000000BC
:103C0000000000000000000000000000000080C074
:103C1000C000000000000000003838383818E3F712
:103C2000FB383838180800000000000000000707C3
:103C30000300000000000000000000000000000081
:103C40000000000000000000000000000000000074
:103C5000000000000000000000E0F8F8180000007C
:103C60000000000000000000000000000000000054
:103C7000000000000000000000C0C0C0C0C0C0C004
:103C800040000000000000000101010101010101EC
:103C90000000000000000000000000000000000024
:103CA0000000000000000000000000000000000014
:103CB0000000000000000000F8F8F800000000001C
:103CC00000000000000000000000000000000000F4
:103CD0000080C0F0FC3E1E060000000000C0C0C016
:103CE000461F0F0300000000C0E0F87E1F0F030016
:103CF000000000000000000000F0F8F40E0E0E0EB0
:103D00000E0E0EFCFCF8000000FFE7E700000000CC
:103D1000000000C3C3E70000000F1F4FE0E0E0E039
:103D2000E0E0E05F3F1F0000000000000000F8FC42
:103D3000FE00000000000000000000000000C7C7F7
:103D4000EF000000000000000000000000003F7FC6
:103D5000FF0000000000000000080C0E0E0E0E0E0A
:103D60000E0E0EF4F8F0000000E0D0F838383838C5
:103D700038383817170F0000001F7FFFE0E0E0E041
:103D8000E0E0E0E0C08000000002060E0E0E0E0E25
:103D90000E0E0EF4F8F000000010103838383838E5
:103DA000383838D7D7EF00000080C0E0E0E0E0E02E
:103DB000E0E0E05F3F1F000000FEFCF800000000B4
:103DC000000000F8FCFE0000000F173F38383838BC
:103DD000383838D7D7EF000000000000000000009E
:103DE0000000003F7FFF000000F0FCFE0E0E0E0EF4
:103DF0000E0E0E0602000000000F173F383838384C
:103E0000383838D0D0E000000080C0E0E0E0E0E0EA
:103E1000E0E0E05F3F1F000000F0FCFE0E0E0E0E23
:103E20000E0E0E060200000000EFD7FF38383838BB
:103E3000383838D0D0E00000001F3F5FE0E0E0E01D
:103E4000E0E0E05F3F1F000002060E0E0E0E0E0EB9
:103E50000E06F2F8FC000000000000000000000068
:103E60000000C7C7EF0000000000000000000000D5
:103E700000003F7FFF00000000F0F8F40E0E0E0E71
:103E80000E0E0EFCFCF8000000FFF7FF3838383843
:103E9000383838DBC3E70000000F1F4FE0E0E0E0F8
:103EA000E0E0E05F3F1F000000F0F8F40E0E0E0EA1
:103EB0000E0E0EF4F8F00000000F173F38383838B7
:103EC000383838D7D7EF0000000080E0E0E0E0E0CD
:103ED000E0E0E05F3F1F0000000000000000000085
:103EE0000000000000000000003E3E3E0000000018
:103EF000000000000000000000F8F8F800000000DA
:103F000000000000000000000000000000000000B1
:103F1000000000000000000000003E3E3E000000E7
:103F2000000000000000000000E0F8F818000000A9
:103F30000000000000000000000000000000000081
:103F4000008080C0C0E00000001010387C7CFECEF5
:103F50008F87030301010000000000000000000043
:103F600001030307060C0000000000000000000031
:103F700000000000000000000000EEEEEEEEEEEEAD
:103F8000EEEEEEEEEE660000000000000000000025
:103F90000000000000000000E0E0C0C08000000061
:103FA0000000000000000000000101030387CFCEE5
:103FB000FE7C7C3810100000000E06070301010093
:103FC00000000000000000000E0E0E0E0E0E0E0E81
:103FD000F4F8F00000000000000010E8D89838382D
:103FE00017170F0000000000000000F9F9F90000A9
:103FF000000000000000000000000080C0603018D9
:104000000C84C462222222C20000FEFF010000FCD8
:10401000FF0700000000C0FF000000030F1C387005
:104020006346C4848482838700F8F2E60E0E0E0E87
:104030000E0E06F2F8FC000000FFF7FF38383838A3
:10404000383838DBC3E7000000FF7F3F0000000086
:104050000000003F7FFF000000F8F2E60E0E0E0E9B
:104060000E0E0EFCFCF8000000FFF7FF3838383861
:10407000383838DBC3E70000007FBFDFC0E0E0E096
:10408000E0E0E0FFFF1F000000F0FCFE0E0E0E0E51
:104090000E0E0E060200000000EFC7C70000000071
:1040A0000000000000000000001F7FFFE0E0E0E0F3
:1040B000E0E0E0C08000000000F8F2E60E0E0E0E18
:1040C0000E0E0EFCFCF8000000FFE7E70000000009
:1040D000000000C3C3E70000007FBFDFC0E0E0E0F6
:1040E000E0E0E0FFFF1F000000FCFAF60E0E0E0EEF
:1040F0000E0E0E0E0602000000EFF7D738383838E3
:104100003838383810100000007FBFDFE0E0E0E012
:10411000E0E0E0E0C080000000FCFAF60E0E0E0EBB
:104120000E0E0E0E0602000000EFD7D738383838D2
:10413000383838381010000000FF7F3F00000000C2
:10414000000000000000000000F0FCFE0E0E0E0E4D
:104150000E0E0E060200000000EFC7C70000103868
:10416000383838D0D0E00000001F3F5FE0E0E0E0EA
:10417000E0E0E05F3F1F000000FEFCF800000000F0
:10418000000000F8FCFE000000FFF7FF3838383868
:10419000383838DBC3E7000000FF7F3F0000000035
:1041A0000000003F7FFF000000F8FCFE0000000060
:1041B000000000000000000000C7C7EF0000000082
:1041C0000000000000000000003F7FFF0000000032
:1041D00000000000000000000000000000000000DF
:1041E000000000F8FCFE000000F0E0E0000000002D
:1041F000000000C3C3E70000003F9FCFE0E0E0E025
:10420000E0E0C0DFBF7F000000FEFCF80080C0E0FF
:10421000F0783C1E0E06000000EFD7FF393B3B391B
:10422000383838D0D0E0000000FF7F3F00000000A9
:104230000000003F7FFF000000FEFCF800000000CF
:10424000000000000000000000EFE7C700000000D1
:10425000000000C0C0E00000003F9FCFE0E0E0E0D1
:10426000E0E0C0DFBF7F000000FCF8F2060E0E0E9B
:104270000E0E0EF6FAF60E0E00FFE7E70000000045
:10428000000000E3F7E7000000FF7F3F00000000B0
:104290000000003FFF3F000000F8F2E60E0E0E0E99
:1042A0000E0E06F2F8FC000000FFE7E70000000039
:1042B000000000C3C3E7000000FF7F3F00000000D4
:1042C0000000003F7FFF000000F0F8F40E0E0E0E1D
:1042D0000E0E0EFCFCF8000000FFE7E700000000F7
:1042E000000000C3C3E70000000F1F4FE0E0E0E064
:1042F000E0E0E05F3F1F000000F8F2E60E0E0E0E59
:104300000E0E0EFCFCF8000000FFF7FF38383838BE
:104310003838381B0B07000000FF7F3F000000000B
:10432000000000000000000000F0F8F40E0E0E0E79
:104330000E0E0EF4F8F0000000EFC7C700000000FA
:10434000000000C7C7EF0000001F3F5FE0E0F0E0A3
:104350006060E0FFFF9F000000F8F2E60E0E0E0E18
:104360000E0E0EFCFCF8000000FFF7FF383838385E
:1043700078F8F89B0B070000007F3F1F000000004B
:1043800000030F1F3E38608000F0FCFE0E0E0E0E84
:104390000E0E0E0602000000000F173F38383838A6
:1043A000383838D0D0E000000080C0E0E0E0E0E045
:1043B000E0E0E05F3F1F000002060E0E0EF6FAF688
:1043C0000E0E0E06020000000000000000E7FFE7EE
:1043D000000000000000000000000000007FFF7FE0
:1043E000000000000000000000FEFCF800000000DB
:1043F000000000F8FCFE000000FFE7E700000000FE
:10440000000000C3C3E70000000F1F4FE0E0E0E042
:10441000E0E0E05F3F1F000000FCF8F0000000005B
:10442000000000F8FCFE0000001F77E7E0C000007D
:104430000080E0E7670F000000000001071F7F0019
:104440007E1F07010000000000FEFCF800000000D5
:10445000000000FCFEFC000000EFC7C700000000E9
:10446000000000C7EFC70000001F7FFFE0E0E0E0B2
:10447000E0E0E0DFBFDFE0E01E7EFCF0C00000C057
:10448000F0FC7E1E00000000000001C7EF03EFEF0C
:10449000C701000000000000F0FC3F0F030101070E
:1044A0000F3FFCF00000000000FEFCF800000000E0
:1044B000000000F8FCFE0000001F173F3838B8B8B5
:1044C000B8383817170F00000000000000007FFF09
:1044D0007F000000000000000002060E0E0E0E8E8F
:1044E000EEFE7E1E0600000000000000C0E0E02797
:1044F0000F0300000000000080F0FC7FDFE7E1E038
:10450000E0E0C080000000000000000000000000AB
:10451000002F000000000700070000147F147F1424
:1045200000242A7F2A1200626408132300364955AA
:10453000225000000503000000001C224100000082
:1045400041221C000014083E08140008083E080818
:10455000000000A060000008080808080000606073
:104560000000002010080402003E5149453E0000B2
:10457000427F4000004261514946002141454B3194
:10458000001814127F10002745454539003C4A4960
:1045900049300001710905030036494949360006D2
:1045A0004949291E0000363600000000563600003A
:1045B00000081422410000141414141400004122B5
:1045C000140800020151090600324959513E007C8D
:1045D0001211127C007F49494936003E4141412277
:1045E000007F4141221C007F49494941007F090960
:1045F0000901003E4149497A007F0808087F000010
:10460000417F4100002040413F01007F08142241CA
:10461000007F40404040007F020C027F007F040882
:10462000107F003E4141413E007F09090906003EDE
:104630004151215E007F0919294600464949493107
:104640000001017F0101003F4040403F001F20402A
:10465000201F003F4038403F0063140814630007E8
:104660000870080700615149454300007F4141003F
:1046700000552A552A55000041417F0000040201DF
:1046800002040040404040400000010204000020BD
:1046900054545478007F48444438003844444420FB
:1046A00000384444487F00385454541800087E09A8
:1046B00001020018A4A4A47C007F08040478000070
:1046C000447D4000004080847D00007F102844002D
:1046D0000000417F4000007C04180478007C08043E
:1046E000047800384444443800FC2424241800187A
:1046F000242418FC007C0804040800485454542066
:1047000000043F444020003C4040207C001C2040EE
:10471000201C003C4030403C004428102844001C31
:10472000A0A0A07C004464544C4414141414141429
:1047300000000000000000000000065F5F060000AF
:104740000003030003030000147F7F147F7F140025
:10475000242E6B6B3A120000466630180C6662001D
:10476000307A4F5D377A48000407030000000000EC
:10477000001C3E63410000000041633E1C0000003D
:10478000082A3E1C1C3E2A0808083E3E0808000075
:104790000080E06000000000080808080808000029
:1047A00000006060000000006030180C060301008B
:1047B0003E7F71594D7F3E0040427F7F4040000068
:1047C000627359496F660000226349497F360000D1
:1047D000181C16537F7F5000276745457D39000020
:1047E0003C7E4B4979300000030371790F070000CC
:1047F000367F49497F360000064F49693F1E000059
:1048000000006666000000000080E6660000000010
:10481000081C3663410000002424242424240000C2
:10482000004163361C080000020351590F060000C6
:104830003E7F415D5D1F1E007C7E13137E7C000069
:10484000417F7F49497F36001C3E6341416322001E
:10485000417F7F41633E1C00417F7F495D41630092
:10486000417F7F491D0103001C3E6341517372006B
:104870007F7F08087F7F000000417F7F41000000AC
:10488000307040417F3F0100417F7F081C7763000B
:10489000417F7F41406070007F7F0E1C0E7F7F0054
:1048A0007F7F060C187F7F001C3E6341633E1C0027
:1048B000417F7F49090F06001E3F21717F5E000086
:1048C000417F7F09197F6600266F4D5973320000C2
:1048D00003417F7F410300007F7F40407F7F0000D6
:1048E0001F3F60603F1F00007F7F3018307F7F00D8
:1048F00043673C183C674300074F78784F07000038
:10490000476371594D677300007F7F41410000008C
:104910000103060C183060000041417F7F00000059
:10492000080C0603060C0800808080808080808050
:104930000000030704000000207454543C78400039
:10494000417F3F4848783000387C44446C28000060
:10495000307848493F7F4000387C54545C18000050
:10496000487E7F490302000098BCA4A4F87C0400A0
:10497000417F7F08047C780000447D7D400000007A
:1049800060E08080FD7D0000417F7F10386C440036
:1049900000417F7F400000007C7C18381C7C780040
:1049A0007C7C04047C780000387C44447C38000023
:1049B00084FCF8A4243C1800183C24A4F8FC8400CF
:1049C000447C784C041C1800485C54547424000047
:1049D00000043E7F442400003C7C40403C7C40007E
:1049E0001C3C60603C1C00003C7C7038707C3C00CF
:1049F000446C3810386C44009CBCA0A0FC7C0000C7
:104A00004C64745C4C64000008083E77414100002F
:104A100000000077770000004141773E0808000061
:104A20000203010302030100000000000000000077
:104A30000000FA446076CF3D1F85EB51B81E41401F
:104A4000FEFFFF4A0000A04200008A427B148E3F16
:104A50000000A041CDCCC7C29AF9794466661E41D8
:104A600066661EC1CDCCC7420000C6C200C07944F4
:104A7000000020410000803F4E796153616D61204C
:104A80005363616C6500000076312E300000000039
:104A90004C4F4241540000002534646D5600000024
:104AA0004E455854000000002533642E2531640023
:104AB0005A45524F000000002532642E25316420F3
:104AC0002531642E253164005245414459000000CF
:104AD0002531643A2530326420253364000000001B
:104AE0002531642E2530336456000000E2D7FFFFE5
:104AF00008D7FFFFDCD7FFFF10D7FFFFDCD7FFFF92
:104B0000D6D6FFFFDCD7FFFF10D7FFFF08D7FFFF88
:104B100008D7FFFFD6D6FFFF10D7FFFF16D7FFFF3E
:104B200016D7FFFF16D7FFFFD6D6FFFFC8D6FFFF69
:104B3000C8D6FFFF9CD7FFFF78D8FFFF9CD7FFFFA9
:104B400096D6FFFF9CD7FFFF78D8FFFFC8D6FFFFA0
:104B5000C8D6FFFF96D6FFFF78D8FFFFD6D6FFFF57
:104B6000D6D6FFFFD6D6FFFF96D6FFFFF0DAFFFFBF
:104B70003EDAFFFF3EDAFFFF3CDAFFFF42DAFFFFDB
:104B800042DAFFFF12DAFFFF3CDAFFFF42DAFFFFF3
:104B900012DAFFFF42DAFFFF3CDAFFFFDEDAFFFF47
:104BA000DEDAFFFFDEDAFFFF12DAFFFF00010202AA
:104BB00003030303040404040404040405050505B5
:104BC0000505050505050505050505050606060691
:104BD0000606060606060606060606060606060675
:104BE0000606060606060606060606060707070761
:104BF0000707070707070707070707070707070745
:104C00000707070707070707070707070707070734
:104C10000707070707070707070707070707070724
:104C20000707070707070707070707070808080810
:104C300008080808080808080808080808080808F4
:104C400008080808080808080808080808080808E4
:104C500008080808080808080808080808080808D4
:104C600008080808080808080808080808080808C4
:104C700008080808080808080808080808080808B4
:104C800008080808080808080808080808080808A4
:104C90000808080808080808080808080808080894
:104CA000080808080808080808080808232D302BF9
:104CB00020000000686C4C006566674546470000B0
:104CC0003031323334353637383941424344454642
:104CD0000000000030313233343536373839616204
:084CE00063646566000000003A
:104CE8000000000000000000010203040607080994
:104CF800000000000102030401020304060708097A
:104D0800000000000000000000000000000000009B
:104D1800000000000000000000000000000000008B
:104D2800000000000000000000000000000000007B
:104D3800000000000000000000000000000000006B
:104D4800000000000000000000000000000000005B
:104D5800000000000000000000000000000000004B
:104D6800006CDC020204060820000020000000009D
:00000001FF
